{
    "tx": "020000000001016972546966be990440a0665b73d0f4c3c942592d1f64d1033717aaa3e2c2ec913300000000ffffffff024087100000000000160014841b80d2cc75f5345c482af96294d04fdd66b2b760e31600000000001600142e8734f8e263e516d47fcaa2dfe1bd01e0dc935802473044022042e5e3ed2a41214ae864634b6fde33ca2ff312f3d89d6aa3e14c026d50d8ed3202206c38dcd0432a0724490356fbf599cdae40e334c3667a9253f8f4cc57cf3c4480012103f465315805ed271eb972e43d84d2a9e19494d10151d9f6adb32b8534bfd764ab00000000",
    "script_sig": "",
    "pub_key": "03f465315805ed271eb972e43d84d2a9e19494d10151d9f6adb32b8534bfd764ab",
    "signature": "3044022042e5e3ed2a41214ae864634b6fde33ca2ff312f3d89d6aa3e14c026d50d8ed3202206c38dcd0432a0724490356fbf599cdae40e334c3667a9253f8f4cc57cf3c448001",
    "input_to_sign": 0
}