{
    "tx": "01000000019d7a3553c3faec3d88d18b36ec3bfcdf00c7639ea161205a02e7fc9a1a25b61d0100000049483045022100c219a522e65ca8500ebe05a70d5a49d840ccc15f2afa4ee9df783f06b2a322310220489a46c37feb33f52c586da25c70113b8eea41216440eb84771cb67a67fdb68c01ffffffff0200f2052a010000001976a914e32acf8e6718a32029dc395cca1e0ac45c33f14188ac00c817a8040000004341049464205950188c29d377eebca6535e0f3699ce4069ecd77ffebfbd0bcf95e3c134cb7d2742d800a12df41413a09ef87a80516353a2f0a280547bb5512dc03da8ac00000000",
    "script_sig": "483045022100c219a522e65ca8500ebe05a70d5a49d840ccc15f2afa4ee9df783f06b2a322310220489a46c37feb33f52c586da25c70113b8eea41216440eb84771cb67a67fdb68c01",
    "input_to_sign": 0
}