{
    "file_path": "app/p2sh-p2wsh",
    "script_sig": "220020973cfd44e60501c38320ab1105fb3ee3916d2952702e3c8cb4cbb7056aa6b47f",
    "cur_tx": "01000000000101ce0840aa3e0ace82c6fe2b7c3b4893ad6e8cc2c28f5d89447cfdab0f980770c50000000023220020973cfd44e60501c38320ab1105fb3ee3916d2952702e3c8cb4cbb7056aa6b47fffffffff01d1fb0000000000001976a914142b5b5e77897361be0a40032db2fbb6b28973f488ac0400473044022047ebba593cba4048da04316b9fb6c076d95d17175d7560edc93868a7d170767502203d0ce939ae462ca685a15f5fd3a64b7a1793cb10473665d5bedd3322c55a2b1001473044022022a8a0ae1f80934abb38d4f8c3febf6f5c5c43e7e70460aa71f9a895aaea4d950220023b8f4d2fd90abdbe6f80c9bcb2b38c7326e5e9e0f3b1ea25a5499d240cacb20169522103591da02bf7c80dc5d0edee4bbbfad7e58320785e3e54d4dab117152361f7002c21027ea2bc65ce49dcd748e4e41a0c8881be388b9182ad5e47579a0de0119803827b2103c5fdaf887f76119a73a7f738d5d4a451ff07bbbc83422c529452d8a36ae59e3953ae00000000",
    "prev_tx": "01000000000102e978d8441867fb693a1d42863da8e444fb8b17ea70e7c9ad277e5dd3baa397e0000000006b483045022100b29217592c5ddb614c8fc53025ae67fbc0dd5a56c559273914e0748d3c9c5042022001a6a86297ab224c2043130da7e54a3bf872c61f7beaf7035e202739458e21cc012103bfaf97744a5cf1818b3ceecc72013c633cc8db06785bdf499da430b0bbdc9cd2ffffffffeda197a1423f5f1e8526b29b20d1421aae742d473a0119b415dff60e1fb0e8190100000000ffffffff02e12201000000000017a914257014cec2f75c19367b2a6a0e08b9f304108e3b87e0de680000000000160014d887006b5c869fd2b68d8dce3ebddbd8bfb9601b0002483045022100b747d8374953f3754340a2ce8fb8d976b882e9170987e60385426e57b86870a702207b7c46c9dad5be4f7dcb72d0ca3a99373b7250f3c758042df996e2e8d536845e012102b954d398e84349c299bb747d46d7bf0882b773b794570acd8e34c30844c6f40400000000",
    "input_to_sign": 0
}